:020000040800F2
:1000000090060020ED010008F5010008F701000846
:10001000F9010008FB010008FD01000800000000D4
:10002000000000000000000000000000FF010008C8
:100030000102000800000000030200080502000899
:10004000070200080702000807020008070200086C
:10005000070200080702000807020008070200085C
:10006000070200080702000807020008070200084C
:10007000070200080702000807020008070200083C
:10008000070200080702000807020008070200082C
:10009000070200080702000807020008070200081C
:1000A000070200080702000807020008070200080C
:1000B00007020008070200080702000807020008FC
:1000C00007020008070200080702000807020008EC
:1000D000070200082D0200080702000807020008B6
:1000E00007020008070200080702000800000000DD
:1000F0000000000000000000000000000000000000
:1001000000000000000000000702000807020008CD
:10011000070200080702000807020008070200089B
:10012000070200080702000807020008070200088B
:10013000070200080702000807020008070200087B
:10014000070200080702000807020008070200086B
:1001500000F002F800F03AF80AA090E8000C82449F
:100160008344AAF10107DA4501D100F02FF8AFF27C
:10017000090EBAE80F0013F0010F18BFFB1A43F085
:10018000010318471C0B00003C0B0000103A24BF71
:1001900078C878C1FAD8520724BF30C830C144BFEC
:1001A00004680C607047000000230024002500262E
:1001B000103A28BF78C1FBD8520728BF30C148BFCA
:1001C0000B6070471FB51FBD10B510BD00F031FDAD
:1001D0001146FFF7F7FF00F05FF800F04FFD03B4A2
:1001E000FFF7F2FF03BC00F053FD00000948804711
:1001F00009480047FEE7FEE7FEE7FEE7FEE7FEE709
:10020000FEE7FEE7FEE7FEE704480549054A064B20
:100210007047000011040008510100089000002000
:100220009006002090020020900200200020444907
:1002300008604448008810F0200F11D08815091D6F
:1002400008604048008820F020003E490880081DD2
:1002500000883D490860084600883A49091D088021
:100260003848008810F0800F05D03648008820F00C
:100270008000344908803348008810F0400F0AD0CD
:100280004FF400402E49091D08602E48008820F0D8
:1002900040002C49088070472C48806940F00400D9
:1002A0002A4988610846806940F001008861084653
:1002B000806940F4804088610846806940F04000D1
:1002C00088614FF40540224908801020C870022040
:1002D00088701B480C3800F07BF91E48006840F01D
:1002E00080001C4908600846006840F03000086043
:1002F0000846006840F48060086012480C300088AE
:1003000042F22C0108430F490C3108804FF6FF7070
:100310000C49091D0880252000F01F020121914091
:1003200042094FF0E02303EB8202C2F8001100BF44
:100330004FF480600249091D086000BFFEE700001D
:100340000C1801400038014000000020001002405D
:1003500004000020040801400CB50020019000902A
:100360006248006840F480306049086000BF5F4820
:10037000006800F4003000900198401C0190009843
:1003800018B90198B0F5A06FF1D15848006810F481
:10039000003F02D00120009001E000200090009872
:1003A000012830D1514840685049486008464068AB
:1003B00048600846406848600846406820F47C1061
:1003C00048600846406840F4981048600846006855
:1003D00040F08070086000BF4448006810F0007F63
:1003E000FAD04248406820F003004049486008467F
:1003F000406840F00200486000BF3C48406800F0A0
:100400000C000828F9D10CBD10B5FFF7A5FF10BDF1
:1004100010B53648006840F00100344908600846CD
:10042000406833490840314948600846006831490E
:1004300008402E4908600846006820F480200860C3
:100440000846406820F4FE0048604FF41F008860B2
:100450000020C862FFF7D8FF27482849086010BD70
:1004600030B50021002000220023204C646804F0F5
:100470000C0121B1042906D0082925D107E0204C20
:10048000204D2C6024E01E4C1E4D2C6020E0174CAB
:10049000646804F47010154C646804F4803202241B
:1004A00004EB904022B9184C4443164D2C600AE0EE
:1004B0000E4CE46A04F00F04631C114CB4FBF3F41B
:1004C0004443104D2C6003E00D4C0E4D2C6000BFDA
:1004D00000BF064C6468C4F303140C4D295D094C3D
:1004E0002468CC40074D2C6030BD00000010024055
:1004F0000000FFF8FFFFF6FE0020024008ED00E0DC
:1005000000127A000800002000093D000C000020C5
:1005100010B50446CA48844208D10121042000F0E5
:1005200034FB0021042000F030FB46E0C548844243
:1005300008D10121082000F028FB0021082000F04C
:1005400024FB3AE0C048844208D10121102000F089
:100550001CFB0021102000F018FB2EE0BB48844259
:1005600008D10121202000F010FB0021202000F004
:100570000CFB22E0B648844208D10121402000F063
:1005800004FB0021402000F000FB16E0B14884424B
:1005900008D10121802000F0F8FA0021802000F02D
:1005A000F4FA0AE0AC48844207D10121801500F03A
:1005B000ECFA0021A01500F0E8FA10BD10B50121F9
:1005C000084600F0E2FA0021012000F0DEFA10BD3A
:1005D0002DE9F041024600250026002000230024DA
:1005E000002791F803C00CF00F0591F803C01CF030
:1005F000100F03D091F802C04CEA050591F800C035
:10060000BCF1000F31D0146800202BE04FF0010C3A
:100610000CFA00F3B1F800C00CEA03069E4220D1A8
:1006200083004FF00F0C0CFA03F7BC4305FA03FCF0
:100630004CEA040491F803C0BCF1280F06D14FF036
:10064000010C0CFA00FCC2F814C00AE091F803C0D7
:10065000BCF1480F05D14FF0010C0CFA00FCC2F8B8
:1006600010C0401C0828D1D31460B1F800C0BCF100
:10067000FF0F34DD546800202EE000F1080C4FF02D
:10068000010808FA0CF3B1F800C00CEA03069E4218
:1006900021D183004FF00F0C0CFA03F7BC4305FA8D
:1006A00003FC4CEA040491F803C0BCF1280F05D107
:1006B00000F1080C08FA0CF8C2F8148091F803C095
:1006C000BCF1480F07D100F1080C4FF0010808FAFF
:1006D0000CF8C2F81080401C0828CED35460BDE846
:1006E000F0814FF6FF710180022181700421C170F9
:1006F00070470246002093680B4201D0012000E0C1
:10070000002070470146886880B27047024600208A
:10071000D3680B4201D0012000E000207047014661
:10072000C86880B2704701617047416170470AB183
:10073000016100E041617047C16070474FF4803251
:100740000A438261816182618269826970470246DF
:100750000020424B18684FF68073184040EA0210A0
:1007600008433E4B186070473D49C8617047F0B57B
:100770000A46002300240021002500F00046B6F1BF
:10078000004F02D1354EF16901E0344E7168C0F37B
:10079000034583B200F44016B6F5401F08D121F09E
:1007A00070612E4E766826F070662C4F7E6012E0E7
:1007B00000F48016B6F5801F06D1032606FA05F46C
:1007C000A14341F0706106E0460D360103FA06F6DA
:1007D000B14341F0706122B1460D360103FA06F6CD
:1007E000314300F00046B6F1004F02D11B4EF161DB
:1007F00001E01A4E7160F0BD30B500228B071C0F6E
:100800000F2303FA04F2154B08338C1053F82430ED
:100810009343124C08348D1044F8253023468C1035
:1008200053F824308C07240F00FA04F423430B4CB4
:1008300008348D1044F8253030BD0A4908607047EF
:1008400000080140000C014000100140001401406C
:1008500000180140001C0140002001400000014040
:1008600000002042DC002042E448006840F0010023
:10087000E249086008464068E1490840DF494860AD
:1008800008460068DF490840DC49086008460068FF
:1008900020F4802008600846406820F4FE0048608C
:1008A0004FF41F0088600020C8627047D349096870
:1008B00021F48031D14A11601146096821F4802168
:1008C0001160B0F5803F03D0B0F5802F0ED106E067
:1008D000CA49096841F48031C84A116007E0C74934
:1008E000096841F4A021C54A116000E000BF00BFC3
:1008F000704710B501460022002300204A11012A4A
:1009000002D1BE4C236806E0022A02D1BB4C236A06
:1009100001E0BA4C636A01F01F02012494401C42BA
:1009200001D0012000E0002010BD38B5002000906B
:100930000024002500BF3120FFF7DBFF05460098AB
:10094000401C00900098B0F5A06F01D0002DF2D0AF
:100950003120FFF7CEFF08B1012400E0002420463B
:1009600038BD01460020A54A106820F0F80040EA92
:10097000C10010607047A44908607047024600201B
:100980009E4B586820F4741042EA010318439B4BB5
:10099000586070479C490866704702460020974B94
:1009A000D86A9A4B184042EA01031843934BD86225
:1009B000704701460020914A506820F00300084328
:1009C000506070478D48406800F00C007047014649
:1009D00000208A4A506820F0F000084350607047B9
:1009E00001460020854A506820F4E06008435060CA
:1009F000704701460020814A506820F4605040EA68
:100A0000C1005060704729B17C4A527A02437B4B47
:100A10005A7204E0794A527A8243784B5A7270478C
:100A20007B490860704701460020744A506820F4F2
:100A300040400843506070470021764A11706F4A69
:100A400082F82010012802D0042808D103E00121F7
:100A5000704A117004E005216E4A117000E000BF79
:100A600000BF70476C49086070476449096A0143D8
:100A7000624A11627047684944390860704770B52E
:100A8000002100230024002200255C4E766806F039
:100A90000C0121B1042905D0082921D105E05F4EC0
:100AA000066020E05D4E06601DE0544E766806F458
:100AB0007013524E766806F48034022606EB934398
:100AC0001CB9574E5E43066009E04C4EF66A06F0CC
:100AD0000F06751C514EB6FBF5F65E43066002E04C
:100AE0004E4E066000BF00BF444E766806F0F0012F
:100AF00009094C4E725C0668D64046603F4E7668E7
:100B000006F4E061090A474E725C4668D64086608A
:100B10003A4E766806F46051C90A424E725C4668E5
:100B2000D640C660354E766806F44041890B3E4E8D
:100B3000725CC668B6FBF2F6066170BD29B12F4A39
:100B4000526902432D4B5A6104E02C4A5269824398
:100B50002A4B5A61704729B1284A92690243274BB0
:100B60009A6104E0254A92698243244B9A61704756
:100B700029B1224AD2690243204BDA6104E01F4ABC
:100B8000D26982431D4BDA61704729B11B4AD26892
:100B900002431A4BDA6004E0184AD2688243174BCA
:100BA000DA60704729B1154A12690243134B1A6182
:100BB00004E0124A12698243104B1A6170471649C9
:100BC0004039086070471049C86470470B49C871C4
:100BD00070470A48406A40F0807008494862704790
:100BE00001460020054A92680A4201D0012000E037
:100BF00000207047014988727047000000100240D1
:100C00000000FFF8FFFFF6FE00004242F0FFFEFF8B
:100C1000D8004242201002408004424200127A0072
:100C200000093D001C0000202C0000207047704788
:100C30007047754600F028F8AE46050069465346F1
:100C400020F00700854618B020B5FFF7DDFABDE8B3
:100C500020404FF000064FF000074FF000084FF023
:100C6000000B21F00701AC46ACE8C009ACE8C009B4
:100C7000ACE8C009ACE8C0098D4670470446AFF344
:100C800000802046FFF7ABFA004870473000002094
:100C900001491820ABBEFEE72600020070470000A5
:100CA000C00C000800000020300000008C0100088B
:100CB000F00C00083000002060060000A8010008C9
:100CC000000000000000000000366E01000000007F
:100CD00000000000010203040607080900000000EC
:100CE00001020304010203040607080902040608BE
:04000005080001ED01
:00000001FF
